:100000000C9469120C94A9120C94A9120C94A912C4
:100010000C94A9120C94A9120C94A9120C94A91274
:100020000C94A9120C948A940C948A940C948A943B
:100030000C94A9120C94A9120C94A9120C94A91254
:100040000C94A9120C948A1D0C94A9120C94A91258
:100050000C94A9120C94289E0C94A9120C94C79885
:100060000C94A9120C94687B0C945E7B0C94A912DE
:100070000C94A9120C94A9120C94A9120C94A91214
:100080000C94A9120C94A9120C94A9120C94A91204
:100090000C94A9120C94A9120C94A9120C94A912F4
:1000A0000C94A9120C94A9120C94A9120C94A912E4
:1000B0000C94A9120C94A9120C94A9120C94A912D4
:1000C0000C94A9120C94A9120C94A9120C94A912C4
:1000D0000C94A9120C94A9120C94A9120C94A912B4
:1000E0000C94A912084AD73B3BCE016E84BCBFFDDD
:1000F000C12F3D6C74319ABD56833DDA3D00C77FF8
:1001000011BED9E4BB4C3E916BAAAABE0000008090
:100110003F05A84CCDB2D44EB93836A9020C50B91F
:10012000918688083CA6AAAA2ABE000000803F004B
:100130004E414E494E495459494E46CDCCCC3D0ACC
:10014000D7233C17B7D13877CC2B329595E6241FAF
:10015000B14F0A000020410000C84200401C462068
:10016000BCBE4CCA1B0E5AAEC59D74434F4D4D5577
:100170004E49434154494F4E0044525952554E0046
:100180004552524F525300494E464F004543484F47
:10019000005072696E7465722073746F707065645C
:1001A0002064756520746F206572726F72732E20E3
:1001B00046697820746865206572726F7220616E7E
:1001C0006420757365204D39393920746F2072654C
:1001D00073746172742E202854656D706572617439
:1001E0007572652069732072657365742E2053657E
:1001F000742069742061667465722072657374611D
:100200007274696E67290A004E6F20436865636BDC
:1002100073756D2077697468206C696E65206E75E2
:100220006D6265722C204C617374204C696E653A66
:100230002000636865636B73756D206D69736D6114
:100240007463682C204C617374204C696E653A208D
:10025000004C696E65204E756D6265722069732071
:100260006E6F74204C617374204C696E65204E75FE
:100270006D6265722B312C204C617374204C696E59
:10028000653A20004D3131300053657269616C2050
:10029000737461747573206D69736D617463680A3A
:1002A000002121204B494C4C20636175736564200B
:1002B000627920746F6F206D75636820696E616369
:1002C000746976652074696D65202D20637572727E
:1002D000656E7420636F6D6D616E643A2000486FC7
:1002E00074656E642049646C652054696D656F7532
:1002F000740A00627573793A2070617573656420C1
:10030000666F7220696E7075740A00627573793A4F
:100310002070617573656420666F722075736572F5
:100320000A00627573793A2070726F63657373693E
:100330006E670A006563686F3A004572726F723AC1
:10034000004F4646004F4E0066616C736500747244
:1003500075650042696C696E656172204C657665F1
:100360006C696E6720477269643A0A00303D2E332B
:10037000323500313D2E3138006D6178002F333138
:10038000002F3331002F333100303D2E3332350012
:10039000313D2E3138006D6178002F3331002F331D
:1003A00031002F333100303D2E33323500313D2EB8
:1003B0003138006D6178002F3331002F3331002F39
:1003C000333100303D2E33323500313D2E3138008F
:1003D0006D6178002F3331002F3331002F3331001E
:1003E000092042616420726573706F6E736521002D
:1003F000092042616420726573706F6E736521001D
:10040000092042616420726573706F6E736521000C
:10041000092042616420726573706F6E73652100FC
:100420004C4F570048494748004F4B004572726F88
:10043000723A20416C6C200020636F6E6E656374AD
:10044000696F6E2E2E2E200054657374696E6720BE
:10045000004C4F570048494748004F4B00457272C7
:100460006F723A20416C6C200020636F6E6E656382
:1004700074696F6E2E2E2E200054657374696E673A
:1004800020004C4F570048494748004F4B004572E9
:10049000726F723A20416C6C200020636F6E6E6543
:1004A0006374696F6E2E2E2E200054657374696E0E
:1004B0006720004C4F570048494748004F4B0045C4
:1004C00072726F723A20416C6C200020636F6E6E06
:1004D000656374696F6E2E2E2E20005465737469E7
:1004E0006E6720002E0A002F0050726F62696E67DF
:1004F000206D65736820706F696E74200020284439
:10050000525952554E2900473239204175746F2097
:10051000426564204C6576656C696E67003F2028F3
:100520004C2C522C462C4229206F7574206F66206B
:10053000626F756E64732E0A003F285629657262D9
:100540006F7365206C6576656C20696D706C617584
:100550007369626C652028302D34292E0A004261AF
:1005600064205A2076616C75650A004E6F206269BE
:100570006C696E65617220677269640A00204400CC
:1005800020204D32303020530020284469736162AE
:100590006C6564293A0046696C616D656E74207300
:1005A000657474696E67730020204D3230312058B5
:1005B000004D617820416363656C65726174696F99
:1005C0006E2028756E6974732F7332290020204DB8
:1005D0003230332058004D61782066656564726161
:1005E0007465732028756E6974732F732900205207
:1005F0000020204D323034205000416363656C652B
:10060000726174696F6E2028756E6974732F73320E
:10061000292028503C7072696E742D616363656C8B
:100620003E20523C726574726163742D6163636530
:100630006C3E20543C74726176656C2D6163636519
:100640006C3E2900204A0020540020530020204DF9
:10065000323035204200416476616E636564202843
:10066000423C6D696E5F7365676D656E745F74693A
:100670006D655F75733E20533C6D696E5F666565A1
:1006800064726174653E20543C6D696E5F74726182
:1006900076656C5F66656564726174653E204A3C90
:1006A0006A756E635F6465763E29002044002049C8
:1006B0000020204D333031205000486F74656E6447
:1006C00020504944004452565F53544154555309F5
:1006D0000050574D5F5343414C45090050574D431F
:1006E0004F4E460900434F4F4C434F4E460900437F
:1006F000484F50434F4E460900544849474809095E
:100700000054434F4F4C5448525309005450574DD6
:100710005448525309005453544550090900545049
:100720004F574552444F574E0900494F494E09090A
:1007300000475354415409090049484F4C445F490C
:1007400052554E090047434F4E46090900090044DF
:100750007269766572207265676973746572733A3F
:100760000A0073327673620900733276736109008E
:1007700031323043090031343343090031353043DD
:1007800009003135374309006F7409006F747077C1
:1007900009007332676109007332676209006F6C88
:1007A0006109006F6C6209007374737409007367E8
:1007B0005F726573756C74004452565354415455BE
:1007C0005300755374657020636F756E74005374B5
:1007D000616C6C6775617264207468727300202D9F
:1007E00073746172740900687973746572657369F2
:1007F000730A202D656E640900626C616E6B207453
:10080000696D65006F66662074696D650070776D4F
:100810002067726164206175746F0070776D206F5E
:100820006666736574206175746F0070776D2073F0
:1008300063616C65206175746F0070776D20736300
:10084000616C652073756D004F542070726577611F
:10085000726E005B6D6D2F735D090050574D2074F3
:1008600068726573682E0074737465700900696E30
:100870007465727009006D73746570730900737428
:1008800065616C746843686F70007673656E73653C
:10089000090050574D207363616C6500435320611C
:1008A000637475616C00486F6C6420637572726567
:1008B0006E740052756E2063757272656E74004DB1
:1008C00041582063757272656E7400524D532063F7
:1008D000757272656E74005365742063757272650B
:1008E0006E7400456E61626C6564090041646472F7
:1008F00065737309000900202E68737472743A20BE
:1009000000202E68656E643A20002063686F707066
:100910006572202E746F66663A2000202E6873740C
:1009200072743A2000202E68656E643A20002063BD
:10093000686F70706572202E746F66663A200020B2
:100940002E68737472743A2000202E68656E643AC3
:1009500020002063686F70706572202E746F666669
:100960003A2000202E68737472743A2000202E689A
:10097000656E643A20002063686F70706572202E87
:10098000746F66663A20003F53206F7574206F665F
:100990002072616E67652028312E2E38290A003FAB
:1009A00050206F7574206F662072616E6765202815
:1009B0002D332E2E3132290A003F4F206F757420BF
:1009C0006F662072616E67652028312E2E313529C1
:1009D0000A003B200020496E76616C6964206578CE
:1009E000747275646572200047322F47332062614C
:1009F0006420706172616D65746572730A004732BC
:100A00003800205A3A200020593A200042656420DC
:100A1000583A20004D65736820706F696E74206FBE
:100A20007574206F662072616E67650A00256973B0
:100A30000025696D20256973002569682025696D89
:100A40002025697300256964202569682025696D62
:100A50002025697300256979202569642025696846
:100A60002025696D20256973005072696E742074A9
:100A7000696D653A20006F6B006F6666008C0187B8
:100A800001800179016B0144454255473A004D31DF
:100A900031322053687574646F776E004D31313395
:100AA000205300434F4E4649475F4558504F5254DC
:100AB000004D4541545041434B00434F4F4C45522C
:100AC0005F54454D504552415455524500434841AD
:100AD0004D4245525F54454D504552415455524543
:100AE00000424142595354455050494E47004152EB
:100AF0004353004D4F54494F4E5F4D4F44455300B3
:100B0000544845524D414C5F50524F54454354490F
:100B10004F4E00455854454E4445445F4D323000D9
:100B2000435553544F4D5F4649524D574152455FCF
:100B300055504C4F4144004C464E5F575249544526
:100B4000004C4F4E475F46494C454E414D45004194
:100B500055544F5245504F52545F53445F53544184
:100B60005455530053445F57524954450052455021
:100B7000454154005344434152440050524F4D505C
:100B8000545F535550504F525400484F53545F4197
:100B90004354494F4E5F434F4D4D414E44530045E2
:100BA0004D455247454E43595F50415253455200BF
:100BB000434153455F4C494748545F425249474877
:100BC000544E45535300544F47474C455F4C49479B
:100BD00048545300534F4654574152455F504F5766
:100BE0004552004255494C445F50455243454E548E
:100BF000004C4556454C494E475F44415441005ACC
:100C00005F50524F42450052554E4F55540041558A
:100C1000544F4C4556454C005052494E545F4A4F34
:100C2000420050524F4752455353004155544F5282
:100C300045504F52545F54454D50004155544F520A
:100C400045504F52545F504F5300564F4C554D45F1
:100C50005452494300454550524F4D0042494E4180
:100C600052595F46494C455F5452414E5346455296
:100C70000053455249414C5F584F4E5F584F4646CE
:100C8000004649524D574152455F4E414D453A4D00
:100C900061726C696E206275676669782D322E30DC
:100CA0002E7820284D6172203330203230323420AB
:100CB00031303A34353A35322920534F5552434575
:100CC0005F434F44455F55524C3A6769746875629B
:100CD0002E636F6D2F4D61726C696E4669726D7710
:100CE0006172652F4D61726C696E2050524F544F86
:100CF000434F4C5F56455253494F4E3A312E3020A8
:100D00004D414348494E455F545950453A4A756CE8
:100D1000696120416476616E636564204558545270
:100D2000554445525F434F554E543A31205555492D
:100D3000443A63656465326132662D343161322D27
:100D4000343734382D396231322D633535633632DC
:100D50006633363766660A002F2F003F4A206F75CC
:100D600074206F662072616E67652028302E3031E6
:100D700020746F20302E33290A0020204D61783AEC
:100D80002000200020204D696E3A2000203B2000EA
:100D900020204D323131205300536F667420656E30
:100DA0006473746F70730046523A0020466C6F771C
:100DB0003A200050726F6265204F6666736574203A
:100DC0005A0050726F6265204F6666736574205AD0
:100DD0000064697300656E0043290A0061626C65F6
:100DE0006420286D696E2074656D702000436F6CFF
:100DF0006420657874727564657320617265200083
:100E0000426564204C6576656C696E6720004661BA
:100E1000696C656420746F20656E61626C65204248
:100E20006564204C6576656C696E670A00496E766C
:100E3000616C6964206D6573682E0A004D3432312F
:100E400020696E636F727265637420706172616D88
:100E5000657465722075736167650A004D65736816
:100E600020706F696E74206F7574206F66207261D8
:100E70006E67650A00546F6F206661722066726F3C
:100E80006D207265666572656E636520706F696E50
:100E9000740A00454550524F4D204F4B0A00290A15
:100EA0000020746F20003F5A206F7574206F6620F9
:100EB00072616E67652028003F59206D757374203C
:100EC0006265203020284E4F5A5A4C455F41535F8F
:100ED00050524F4245292E0A003F58206D757374B9
:100EE000206265203020284E4F5A5A4C455F4153AE
:100EF0005F50524F4245292E0A0020647269766580
:100F0000722063757272656E743A20002064726993
:100F10007665722063757272656E743A2000206483
:100F200072697665722063757272656E743A20001C
:100F3000206472697665722063757272656E743AA8
:100F400020007370726561644379636C650073742B
:100F500065616C746843686F7000206472697665BF
:100F600072206D6F64653A09007370726561644345
:100F700079636C6500737465616C746843686F7045
:100F80000020647269766572206D6F64653A0900AD
:100F90007370726561644379636C65007374656135
:100FA0006C746843686F70002064726976657220A3
:100FB0006D6F64653A0900737072656164437963AB
:100FC0006C6500737465616C746843686F700020B1
:100FD000647269766572206D6F64653A0900496EC6
:100FE00076616C69642065787472756465720A0054
:100FF0006F6B0020204D323036205800486F6D65F1
:10100000206F6666736574004361703A00203B0090
:1010100020204D383531205830205930205A005A80
:101020002D50726F6265204F66667365740020579D
:101030003A0020573A0023646566696E652044458E
:101040004641554C545F004B6420004B6920004BD7
:10105000702000504944204175746F74756E65208E
:1010600066696E69736865642120507574207468C0
:1010700065206C617374204B702C204B6920616E6D
:1010800064204B6420636F6E7374616E74732066AA
:10109000726F6D2062656C6F7720696E746F20438C
:1010A0006F6E66696775726174696F6E2E680A008B
:1010B000504944204175746F74756E65206661698E
:1010C0006C6564212074696D656F75740A00504900
:1010D00044204175746F74756E65206661696C6536
:1010E00064212054656D7065726174757265207439
:1010F0006F6F20686967680A00204B643A200020FF
:101100004B693A2000204B703A200020436C6173F9
:1011100073696320504944200A002054753A200026
:10112000204B753A2000206D61783A2000206D69CF
:101130006E3A200020643A200020626961733A20F0
:1011400000504944204175746F74756E6520737446
:101150006172740A00504944204175746F74756E51
:1011600065206661696C6564212054656D706572E7
:10117000617475726520746F6F20686967680A0012
:10118000504944204175746F74756E6520666169BD
:101190006C65642120426164206865617465722019
:1011A00069640A006F70656E0054524947474552A2
:1011B0004544003A20007A5F70726F6265007A5F82
:1011C0006D617800795F6D617800785F6D696E00A0
:1011D0005265706F7274696E6720656E6473746FA8
:1011E00070207374617475730A0020746F6F206CC3
:1011F0006F6E6720657874727573696F6E20707298
:101200006576656E7465640A0020636F6C642065A2
:101210007874727573696F6E2070726576656E741E
:1012200065640A000000A0C00000484300005C4361
:101230005761726E696E673A20486F6D696E6720FC
:1012400042756D702044697669736F72203C20315D
:101250000A00020204000048430000484300005C0A
:10126000430000A0400000A040000000400000003B
:1012700001000000010000800055555500000040AD
:101280000033333300AAAA2A004992240000002028
:1012900000C7711C0099991900D1451700555515C3
:1012A000003BB1130024491200111111000000107D
:1012B000000F0F0F00E3380E0043790D00CCCC0C6B
:1012C00000C3300C00E8A20B0064210B00AAAA0A9C
:1012D00000703D0A009DD80900427B090092240954
:1012E00000DCD308008888080010420800000008CD
:1012F00000F0C107008787070075500700711C07C1
:10130000003EEB0600A1BC0600699006006666067A
:1013100000703E06006118060017F4050074D10540
:10132000005BB00500B290050062720500555505DE
:101330000078390500B81E0500050505004EEC04CF
:101340000087D40400A1BD040090A70400499204C2
:1013500000C17D0400EE690400C756040044440443
:10136000005C320400082104004110040000000465
:10137000003FF00300F8E0030026D20300C3C303DC
:1013800000CCB503003AA803000A9B0300388E0383
:1013900000C08103009F750300D0690300505E0305
:1013A000001D53030034480300913D030033330311
:1013B0000016290300381F030097150300300C03A3
:1013C00000030303000BFA020049F10200BAE8022D
:1013D000005CE002002DD802002DD0020059C802A6
:1013E00000B0C0020031B90200DAB10200AAAA02BC
:1013F00000A0A30200BC9C0200FA9502005C8F02D0
:1014000000DF88020082820200457C02002776020B
:101410000027700200436A02007C640200D05E0272
:10142000003F590200C8530200FFFDFCFAF8F6F431
:10143000F2F0EEECEAE9E7E5E3E1E0DEDCDAD9D769
:10144000D5D4D2D0CFCDCBCAC8C7C5C3C2C0BFBD0B
:10145000BCBAB9B7B6B4B3B2B0AFADACAAA9A8A67E
:10146000A5A4A2A1A09E9D9C9A99989795949392C9
:10147000908F8E8D8B8A8988878684838281807FF6
:101480007E7D7B7A797877767574737271706F6E02
:101490006D6C6B6A696867666564636261605F5EF4
:1014A0005D5C5B5A595858575655545352515050D9
:1014B0004F4E4D4C4B4A4A494847464645444342A5
:1014C0004241403F3E3E3D3C3B3B3A39383837365F
:1014D0003535343332323130302F2E2E2D2C2B2B0C
:1014E0002A292928272726252524232322212120AC
:1014F000201F1E1E1D1C1C1B1B1A1919181817163D
:1015000016151514131312121111100F0F0E0E0DC4
:101510000D0C0C0B0A0A0909080807070606050541
:1015200004040303020201000000004843000048D5
:101530004300005C430000000000000000000000C9
:1015400000290A002062797465733B20637263206E
:101550000053657474696E67732053746F726564A9
:10156000202800454550524F4D20496E69746961ED
:101570006C697A65640A0048617264636F646564CB
:101580002044656661756C742053657474696E6778
:1015900073204C6F616465640020286D6D29002004
:1015A0003B204C6576656C696E67200020204D34C9
:1015B00032302053004175746F20426564204C65C1
:1015C00076656C696E670020204D393036002054F6
:1015D00030204500537465707065722064726976BE
:1015E00065722063757272656E740020204D353609
:1015F000392053310054302045002058004472698E
:10160000766572207374657070696E67206D6F64A3
:101610006500204A00202047323920572049002009
:10162000204D3134392043203B20556E697473209E
:10163000696E2043656C736975730A0054656D703B
:101640006572617475726520556E6974730020202F
:10165000473231203B004C696E65617220556E69DE
:10166000747300454550524F4D2064617461736935
:101670007A65206572726F722E0A00290A00206254
:10168000797465733B2063726320002073746F72FA
:1016900065642073657474696E6773207265747213
:1016A0006965766564202800202863616C63756C29
:1016B0006174656429210A0020213D2000454550C0
:1016C000524F4D20435243206D69736D61746368BE
:1016D000202D202873746F726564292000205369BF
:1016E0007A653A2000496E6465783A200000004827
:1016F00043000016430000A041000034420000C82F
:10170000420000C8420000484300000C43D00700DC
:1017100000E8030000C800000010270000204D6111
:10172000726C696E3D563836290A00454550524F55
:101730004D2076657273696F6E206D69736D61748B
:1017400063682028454550524F4D3D0024F4D43065
:1017500050C38E20C2A24017828B7011127A910D55
:10176000816CD90AA861E108C75866076151430630
:101770001E4B5D05C145A7041A411104093D98039C
:10178000713931034036DB0265339102D4305402A3
:10179000802E1D02632CEE01752AC501B028A00120
:1017A000102781018F2564012B244B01E022340195
:1017B000AC211F018D200D01801FFC00841EED0057
:1017C000971DDF00B81CD200E61BC600201BBC0022
:1017D000641AB200B219A8000A19A0006A18990088
:1017E000D117910040178B00B516840031167E008A
:1017F000B31579003A157300C7146F0058146A00C6
:10180000EE1366008813630025135E00C7125B00A9
:101810006C12570015125400C111510070114F0085
:1018200021114B00D61049008D104700461044008E
:1018300002104200C00F4000800F3E00420F3C00EB
:10184000060F3B00CB0E3800930E37005C0E3500C0
:10185000270E3400F30D3200C10D3100900D300021
:10186000600D2E00320D2D00050D2C00D90C2B0023
:10187000AE0C2900850C29005C0C2700350C2700D4
:101880000E0C2600E80B2400C40B2400A00B230040
:101890007D0B23005A0B2100390B2100180B20006F
:1018A000F80A1F00D90A1E00BB0A1E009D0A1D006F
:1018B000800A1D00630A1C00470A1B002C0A1B003B
:1018C000110A1A00F7091A00DD091900C4091900E4
:1018D000AB091900920917007B091800630917006A
:1018E0004C09160036091600200916000A091500D1
:1018F000F5081500E0081400CC081400B80814001E
:10190000A4081400900813007D0812006B0813004F
:10191000580812004608120034081100230811006C
:101920001208110001081100F0071000E007100074
:10193000D0071000C0071000B0070F00A10710006B
:1019400091070E0083070F0074070F0065070E0054
:1019500057070E0049070E003B070D002E070E002B
:1019600020070D0013070D0006070D00F9060C00F7
:10197000ED060D00E0060C00D4060C00C8060C00B5
:10198000BC060C00B0060C00A4060B0099060C0067
:101990008D060B0082060B0077060B006C060B0011
:1019A00061060A0057060B004C060A0042060A00B0
:1019B00038060A002E060A0024060A001A060A0043
:1019C0001006090007060A00FD050900F4050900D4
:1019D000EB050900E2050900D9050900D005090059
:1019E000C7050900BE050900B5050800AD050800DA
:1019F000A50509009C050800940508008C05080051
:101A0000840508007C050800740508006C050700C3
:101A1000650508005D050700560508004E0507002E
:101A20004705070040050800380507003105070095
:101A30002A050700230507001C05060016050700F8
:101A40000F0507000805060002050700FB04060055
:101A5000F5040700EE040600E8040600E2040700AF
:101A6000DB040600D5040600CF040600C904060006
:101A7000C3040600BD040600B7040600B104050057
:101A8000AC040600A6040600A00405009B040600A2
:101A900095040500900406008A04050085040500ED
:101AA000800406007A040500750405007004050032
:101AB0006B04050066040500610405005C04050074
:101AC00057040500520405004D04050048040500B4
:101AD000430405003E0404003A04050035040500F3
:101AE000300404002C04050027040400230405002E
:101AF0001E0404001A040400160405001104040066
:101B00000D0404000904050004040400000404009A
:101B1000FC030400F8030400F4030400F0030400D1
:101B2000EC030400E8030400E4030400E003040001
:101B3000DC030400D8030400D4030400D003040031
:101B4000CC030400C8030300C503030024F404D934
:101B5000201BC40C5C0E9804C4095F026507710168
:101B6000F405F900FB04B30048048700C1036900D1
:101B70005803550003034500BE023A0084023100B9
:101B800053022A002902250004022000E4011C005F
:101B9000C8011900AF011700980114008401130057
:101BA000710110006101100051010E0043010D0090
:101BB00036010B002B010B0020010B001501090061
:101BC0000C01090003010800FB000800F3000800F5
:101BD000EB000700E4000600DE000600D800060067
:101BE000D2000600CC000500C7000500C2000500B9
:101BF000BD000400B9000400B5000400B1000400F9
:101C0000AD000400A9000400A5000300A200030029
:101C10009F0004009B000300980003009500020051
:101C200093000300900003008D0002008B0003006E
:101C30008800020086000200840003008100020088
:101C40007F0002007D0002007B000200790002009C
:101C500077000100760002007400020072000100AB
:101C6000710002006F0002006D0001006C000200B4
:101C70006A000100690002006700010066000100BF
:101C800065000100640002006200010061000100C3
:101C9000600001005F0002005D0001005C000100C7
:101CA0005B0001005A0001005900010058000100CA
:101CB00057000100560001005500010054000100CA
:101CC00053000000530001005200010051000100C8
:101CD000500001004F0001004E0000004E000100C6
:101CE0004D0001004C0001004B0000004B000100C2
:101CF0004A000100490001004800000048000100BE
:101D000047000100460000004600010045000000B9
:101D100045000100440001004300000043000100B1
:101D200042000000420001004100000041000100AB
:101D3000400001003F0000003F0001003E000000A5
:101D40003E0001003D0000003D0001003C0000009D
:101D50003C0000003C0001003B0000003B00010093
:101D60003A0000003A00010039000000390001008B
:101D70003800000038000000380001003700000083
:101D80003700010036000000360000003600010078
:101D9000350000003500000035000100340000006F
:101DA0003400000034000100330000003300000064
:101DB0003300010032000000320000003200010058
:101DC000310000003100000031000100300000004F
:101DD00030000000300001002F0000002F00000044
:101DE0002F0000002F0001002E0000002E00000038
:101DF0002E0001002D0000002D0000002D0000002D
:101E00002D0001002C0000002C0000002C00000020
:101E10002C0001002B0000002B0000002B00000014
:101E20002B0001002A0000002A0000002A00000008
:101E30002A000100290000002900000029000000FC
:101E400029000000290001002800000028000000EF
:101E500028000000280000002800010027000000E2
:101E600027000000270000002700000027000100D5
:101E700026000000260000002600000026000000CA
:101E800026000100250000002500000025000000BC
:101E900025000000250000002500010024000000AE
:101EA00024000000240000002400000024000100A1
:101EB0002300000023000000230000002300000096
:101EC0002300000023000000230001002200000086
:101ED000220000002200000022000000220000007A
:101EE000220001002100000021000000210000006C
:101EF000210000002100000021000000210001005D
:101F00002000000020000000200000002000000051
:101F10002000000020000000200000002000010040
:101F20001F0000001F0000001F0000001F00000035
:101F30001F0000001F0000001F0001001E00000025
:101F40001E0000001E0000001E00000039300000CE
:101F50003325000087190000B00F0000DB080000E7
:101F6000BD040000740200003F010000423A00205E
:101F7000436F756E7420413A004500626564002C21
:101F80002073797374656D2073746F70706564214C
:101F9000204865617465725F49443A200048656174
:101FA00074696E67204661696C6564004865617498
:101FB000696E67206661696C65640010006003509B
:101FC000012C0190012201D001180110020E0170B4
:101FD000020401E002FA006003F0000004E600B031
:101FE00004DC00A005D200B006C8000008BE00A0B6
:101FF00009B400800BAA00D00DA00090109600C07C
:10200000138C0070178200901B780010206E00C0A7
:10201000246400E02D500080353C00A03A2800A048
:102020003D1400003F0000A03FECFF4572723A20D3
:102030004D415854454D50004D415854454D502048
:10204000747269676765726564004572723A204D03
:10205000494E54454D50004D494E54454D50207405
:10206000726967676572656400202F002042403AFC
:102070000020403A001000C90210012C014001224A
:102080000170011801B0010E01F00104015002FAC3
:1020900000B002F0003003E600D003DC009004D270
:1020A000007005C800A006BE000008B400B009AA70
:1020B00000D00BA000600E960060118C000015820D
:1020C0000020197800C01D6E00A0226400B0275ABD
:1020D00000902C500000314600E0343C00103832B3
:1020E00000903A2800603C1E00A03D1400803E0A8B
:1020F00000203F00002020506C616E6E65724275BA
:102100006666657242797465733A2000204672658E
:1021100065204D656D6F72793A200020436F6D70B8
:10212000696C65643A204D61722033302032303260
:10213000340A00204C6173742055706461746564C6
:102140003A20323032322D30332D3134207C204150
:102150007574686F723A2028467261636B74616CA3
:1021600020576F726B732C2064656661756C7420E8
:10217000636F6E666967290A004D61726C696E2033
:102180006275676669782D322E302E780A002053EA
:102190006F6674776172652052657365740A0020FA
:1021A0005761746368646F672052657365740A00D1
:1021B0002042726F776E206F75742052657365745C
:1021C0000A002045787465726E616C2052657365F3
:1021D000740A00506F77657255700A0073746172EB
:1021E000740A0020503A00205A3A0020593A002040
:1021F000583A00656E6473746F7073206869743A3E
:10220000200000002100240027002A002D003000BB
:10221000330001010000040107010A0100000A0B5C
:1022200002090C0D0E080703040100000000000065
:10223000000000000000000000000000000000009E
:10224000000000000000000012111000000000005B
:10225000000000000000000000000000000000007E
:102260000000000020002300260029002C002F0081
:1022700032000001000003010601090100002200F4
:10228000250028002B002E00310034000201000040
:10229000050108010B0105050505070508080808E3
:1022A000020202020A0A08080404040401010101EE
:1022B00001010101030303030303030304070707E9
:1022C0000C0C0C0C0C0C0C0C02020202060606068E
:1022D000060606060B0B0B0B0B0B0B0B010210205B
:1022E000200808102040102040800201020108044C
:1022F00002010102040810204080804020100804E0
:102300000201800402018040201008040201080438
:10231000020101020408102040800102040810207C
:102320004080486F6D696E67204661696C65640026
:10233000FF010150726F62696E67204661696C65CA
:10234000640A00205A3A200020593A20004265646D
:1023500020583A2000307800220A00556E6B6E6FCC
:10236000776E20636F6D6D616E643A2022002045A8
:1023700000205A0020590020204D393220580053A7
:10238000746570732070657220756E697400457293
:10239000726F722077726974696E6720746F20455E
:1023A0004550524F4D210A00DB0FC93F45BCDA3F73
:1023B0008FB30240FCF0274056946140FE4B9B4097
:1023C00084A5D840E0231841346A5641E859974122
:1023D00064DBD5416E271742B4B75542CE1A9742F7
:1023E000C8AED542B5885A43D40684BFA65FA7BFFE
:1023F0007443E0BF10B11AC01C2C58C0E8F697C057
:10240000B849D6C04E4E17C124D355C1802497C1B8
:10241000A0B5D5C1121A17C244AE55C2781797C2DB
:102420006CACD5C267885AC320746F6F206C6F6E16
:102430006720657874727573696F6E207072657647
:10244000656E7465640A0020636F6C64206578743F
:10245000727573696F6E2070726576656E746564EF
:102460000A00544845524D414C2052554E41574167
:102470005900546865726D616C2052756E617761A8
:102480007900486F6D652025732573257320466993
:102490007273740020453A00205A3A0020593A00DD
:1024A000583A006F6B0A00526573656E643A2000FB
:1024B0005072696E7465722068616C7465642E2058
:1024C0006B696C6C28292063616C6C6564210A005F
:1024D000DAA511241FBECFEFD1E2DEBFCDBF00E0F1
:1024E0000CBF84B78093C20F14BE0FB6F894A895A2
:1024F00080916000886180936000109260000FBE40
:1025000013E0A0E0B2E0E6E6F3E701E00BBF02C0B3
:1025100007900D92A03AB107D9F72FE0A0EAB3E0F7
:1025200001C01D92A23CB207E1F712E1C9E6D2E177
:1025300000E006C021970109802FFE010E9469B6C4
:10254000C836D10780E00807A9F70E9452A70C946B
:10255000B1B90C940000EF92FF920F931F93E09299
:10256000AD03F092AE030093AF031093B0036093FA
:10257000B1037093B2038093B3039FEFFF27621BF5
:10258000730B840B30F4809570956195790B890BF2
:1025900099279093AC03A6E06A9F0092A003512D67
:1025A000EE277A9F500DE11D8A9FE00D5093A10305
:1025B000E093A203AFE06A9F0092A403512DEE279F
:1025C0007A9F500DE11D8A9FE00D5093A503E09383
:1025D000A603AAE06A9F0092A803512DEE277A9FD6
:1025E000500DE11D8A9FE00D5093A903E093AA03CB
:1025F0001F910F91FF90EF90089521E030E0082E99
:1026000002C0220F331F0A94E2F720953095909173
:10261000B90429232093B904813051F0823069F044
:102620005F9A8091E4068E7F8093E40681E00895AE
:102630008A9A8091E4068D7FF7CF8091080180957A
:102640008170809306018091E4068B7FEDCF9F928D
:10265000AF92BF92CF92DF92EF92FF920F931F93B0
:10266000CF93DF9300D01F921F92CDB7DEB7E9E280
:10267000F4E10027BB27462F572FA82FAA2341F4A8
:10268000A52F542FB85FAA2319F4A52F5527B85F9B
:10269000A03138F45295A295452F4F70507FA42B4E
:1026A000BC5FA03428F4550FAA1F550FAA1FBE5FA8
:1026B000A03818F4550FAA1FB395550FAA1FEA0F9B
:1026C000F01F449151E0AA27B85079F1C0F0B0FF53
:1026D00002C0440F551FB1FF04C0440F551F440FE3
:1026E000551FB2FF06C052954295142F1F70407FB0
:1026F000512BB3FF1AC0A52F542F442716C0B195F4
:10270000B0FF02C055954795B1FF04C05595479558
:1027100055954795B2FF05C05295407F4295452B90
:102720005F70B3FF02C0452F5527DD24CC24BB24A6
:10273000B2E0649FD018C108B00AB00B749FC018F3
:10274000B108B00B849FB018B109659FC018B108DB
:10275000B00B759FB018B109859FB0196A9FB0186A
:10276000B1097A9FB0194D9DA12C9924332799273F
:1027700022275D9DA00C911C301F901F201FAD9D36
:10278000900C311D901F201F4C9DA00C911C301FE0
:10279000901F201F5C9D900C311D901F201FAC9D31
:1027A000300D911D201F4B9D900C311D901F201F3F
:1027B0005B9D300D911D201FAB9D900D211D4B9FEA
:1027C000300D911D201F5B9F900D211DAB9F200D93
:1027D000B1E0BB24CC24DD24639FD018C108B00A2B
:1027E000B00B739FC018B108B00B839FB018B1092C
:1027F000699FC018B108B00B799FB018B109899FC3
:10280000B019629FB018B109729FB019D61AC70AE1
:10281000B80A20F0B1E03B0F901F201F1124792F40
:10282000632F90E0822F0F900F900F900F900F90DA
:10283000DF91CF911F910F91FF90EF90DF90CF909C
:10284000BF90AF909F900895AF92BF92CF92DF92CA
:10285000EF92FF920F931F93CF93DF93CFE9DCE0CA
:1028600007E017E08FEAA82E8CE0B82EC12CD12CFF
:102870007601C39469917991899199910E9415B2D9
:10288000288939894A895B890E9476B20E9403B8F7
:10289000F80161937193819391938F01C616D706C6
:1028A000E806F90610F46B017C01AC16BD0611F7C1
:1028B0006FEF7FEFCB01A70196010E94EBB520934C
:1028C0001707309318074093190750931A07DF91A1
:1028D000CF911F910F91FF90EF90DF90CF90BF901D
:1028E000AF900895CF92DF92EF92FF928091820491
:1028F000882309F457C0C0907E04D0907F04E090F4
:102900008004F090810420E030E0A901C701B60105
:102910000E9411B2882309F445C020E030E040E075
:102920005FE3C701B6010E9476B29B01AC010E9431
:1029300076B22BED3FE049E450E40E9476B29B0171
:10294000AC0160E070E080E89FE30E9496B76B0105
:102950007C01C0926C04D0926D04E0926E04F092FF
:102960006F046091280270912902072E000C880BD9
:10297000990B0E9417B22AE037ED43E25CE30E9414
:1029800076B2A70196010E9476B260935B027093C3
:102990005C0280935D0290935E02FF90EF90DF9067
:1029A000CF900895C12CD12C80E8E82E8FE3F82E2B
:1029B000D0CF8091D10E9091D20E891B8F7019F4D7
:1029C00090E080E008959091CE0E992351F08330ED
:1029D00030F48FEF890F19F08093CE0EF1CF109263
:1029E000CE0E8091D20E27E5829FC0011124825D18
:1029F000984FFC01208120FDE3CF2091D20E2F5F64
:102A00002F702093CF0E3091D20E2091D00E321322
:102A100004C02091CF0E2093D00E0895FC01708148
:102A2000472F50E0062E02C0559547950A94E2F7CD
:102A300040FF14C040914F0450E0062E02C055954F
:102A400047950A94E2F740FF09C021E030E001C059
:102A5000220F6A95EAF72095272320830895CF93C4
:102A6000DF9324E0829FC0011124EC01C951D34FB0
:102A7000FC01EA51F94F805B9B4FDC012D913D91A8
:102A80004D915C9160817181828193810E94BAB67F
:102A9000688379838A839B83DF91CF9108958F9296
:102AA0009F92AF92BF92CF92DF92EF92FF92CF931D
:102AB000DF9320912C02222309F48EC0EC01809137
:102AC0004F04E82E80FF2CC080902E0290902F02A1
:102AD000A0903002B0903102288139814A815B8117
:102AE000C501B4010E94E0B8181624F488829982C6
:102AF000AA82BB8280903A0290903B02A0903C0256
:102B0000B0903D02288139814A815B81C501B401C1
:102B10000E9411B287FF04C088829982AA82BB8278
:102B2000E1FE2CC08090320290903302A0903402DB
:102B3000B09035022C813D814E815F81C501B40189
:102B40000E94E0B8181624F48C829D82AE82BF8267
:102B500080903E0290903F02A0904002B0904102CF
:102B60002C813D814E815F81C501B4010E9411B26B
:102B700087FF04C08C829D82AE82BF82E2FE2CC0A1
:102B8000C0903602D0903702E0903802F0903902BF
:102B9000288539854A855B85C701B6010E94E0B862
:102BA000181624F4C886D986EA86FB86C0904202AD
:102BB000D0904302E0904402F09045022885398588
:102BC0004A855B85C701B6010E9411B287FF04C028
:102BD000C886D986EA86FB86DF91CF91FF90EF9079
:102BE000DF90CF90BF90AF909F908F90089580918D
:102BF0004B0490914C04A0914D04B0914E048093ED
:102C0000240290932502A0932602B093270280917C
:102C1000490490914A0490932302809322020895DC
:102C20008091240290912502A0912602B091270262
:102C300080934B0490934C04A0934D04B0934E04A6
:102C4000809122029091230290934A048093490438
:102C500084E690E09093230280932202089590E00E
:102C600080E0089520910604833021F425FD0CC0F6
:102C700024FD0CC030E0A90102C0559547958A9506
:102C8000E2F7CA018170089581E0089580E0089517
:102C90008091220484FD0BC08091240487FD07C02D
:102CA00090912504937081E019F480E0089581E00B
:102CB00008952FEB280F2A3108F047C0E22FF0E0EB
:102CC0008091220490912304A0912404B0912504C2
:102CD00004C0B695A795979587952A95D2F780FD5C
:102CE00002C081700895E85FFB4FE081EE2341F15F
:102CF0008091FF0690910007E80FF92FF11D808168
:102D000090ED980F9A3030F08E3251F481818053DB
:102D10008A3098F4F0930304E093020481E008956C
:102D20008D3211F08B3249F4818190ED980F9A30F9
:102D300088F38E3211F48281EACFF0E0E0E0EACF4E
:102D40001092030410920204E9CF80E00895B1DFED
:102D5000882341F081E02091020430910304232B69
:102D600009F480E00895FC01DB0112962D913D915C
:102D70004C91149722833383448315968C91159735
:102D8000858316962D913D914C9118972683378314
:102D9000408719964D915D916D917C911C9741876B
:102DA0005287638774871D964D915D916D917C91DB
:102DB0005097458756876787708B8CE793E09183A0
:102DC000808351968D919C915297928B818B5396D3
:102DD0004D915D916D917C915697438B548B658B92
:102DE000768B57968C915797878B58968D919C919F
:102DF0005997918F808F5A968D919C915B97938F65
:102E0000828F5C968D919C915D97958F848F5E9655
:102E10004D915D916D917C919197468F578F60A3F5
:102E200071A392964D915D916D917C91959742A37E
:102E300053A364A375A396964D915D916D917C917A
:102E4000999746A357A360A771A79A968D919C91D5
:102E50009B9793A782A79C968D919C919D9795A7F0
:102E600084A79E968D919C919F9797A786A7D096B1
:102E70008D919C91D19791AB80ABD2968C9182AB86
:102E800008958F929F92AF92BF92CF92DF92EF926E
:102E9000FF92C090AF04D090B004E090B104F090E5
:102EA000B20420E030E0A901C701B6010E9411B2CE
:102EB0008823E1F1A701960160E070E080E89FE3DC
:102EC0000E9496B76B017C018090B3049090B4048B
:102ED000A090B504B090B60420E030E0A901C5018F
:102EE000B4010E9411B2882329F1A501940160E088
:102EF00070E080E89FE30E9496B7C092F103D09201
:102F0000F203E092F303F092F4036093F5037093FD
:102F1000F6038093F7039093F803FF90EF90DF9010
:102F2000CF90BF90AF909F908F900895C12CD12CDF
:102F30007601CACF60E070E0CB01DFCF2F923F92E5
:102F40004F925F926F927F928F929F92AF92BF92B9
:102F5000CF92DF92EF92FF920F931F93CF93DF9365
:102F6000CDB7DEB72E970FB6F894DEBF0FBECDBF3C
:102F7000F82EE62E042F122F282F30E03A872987CB
:102F8000862F90E09C878B87220F331FA985BA85F7
:102F90002A0F3B1F3E872D87FC01E20FF31FEE0F28
:102FA000FF1FEE0FFF1FED57FB4F60817181828184
:102FB00093819B01AC010E9466B9882309F440C14A
:102FC000802F8F0D612F6E0D282F30E0F901EE0F4D
:102FD000FF1FE20FF31FAB85BC85AE0FBF1FAA0F0B
:102FE000BB1FAA0FBB1FAD57BB4FAC901196BC9037
:102FF00011971296CC9012971396DC90080F802FA1
:1030000090E0AC01440F551F480F591FAB85BC859C
:10301000A40FB51FAA0FBB1FAA0FBB1FAD57BB4FF5
:10302000EC901196FC90119712960C9112971396B2
:103030009C90862F90E0AD85BE85A80FB91FAA0F82
:10304000BB1FAA0FBB1FAD57BB4F8C9011967C9036
:10305000119712966C90129713965C90610F70E026
:103060002D853E85260F371F220F331F220F331F5A
:103070002D573B4F3E872D87D9014C9011963C90A0
:10308000119712961C91129713962C90E80FF91F26
:10309000EE0FFF1FEE0FFF1FED57FB4FB081B983FF
:1030A00021812A8332813B8383818C83FA01E60F5D
:1030B000F71FEE0FFF1FEE0FFF1FED57FB4F908125
:1030C0009D83A181AE83B281BF832381288797012D
:1030D000402F592DB701802F992D0E9466B9882362
:1030E00021F0E12CF12C00E0912C9501A601B50115
:1030F000C6010E9466B9882319F05701C02ED92C49
:10310000242D332D412F522D642D732D812F922D7F
:103110000E9466B9882321F0412C312C10E0212C2B
:10312000282D372D462D552D682D772D862D952D43
:103130000E9466B9882321F0842C732C612E522CB6
:103140002D813E814F8158856D817E818F8198854B
:103150000E9466B9882321F01D821E821F82188674
:1031600029813A814B815C8169817A818B819C8143
:103170000E9466B9882341F03D8139838E818A831C
:103180009F819B83A885AC83E985FA85EE0FFF1F9D
:1031900029853A85E20FF31F8B859C85E80FF91F7F
:1031A000EE0FFF1FEE0FFF1FED57FB4FFA87E9876A
:1031B0009501A601B501C6010E94BAB69701402F3C
:1031C000592D0E94B9B66B017C01282D372D462D53
:1031D000552D682D772D862D952D0E94BAB6242D5C
:1031E000332D412F522D0E94B9B69B01AC01C7016E
:1031F000B6010E94BAB66B017C0129813A814B81EC
:103200005C8169817A818B819C810E94BAB62D8113
:103210003E814F8158850E94B9B69B01AC01C70120
:10322000B6010E94BAB620E030E040E450E40E94CB
:1032300096B7A985BA856D937D938D939C931397CB
:103240002E960FB6F894DEBF0FBECDBFDF91CF91A3
:103250001F910F91FF90EF90DF90CF90BF90AF90B4
:103260009F908F907F906F905F904F903F902F90A6
:1032700008954091B70421E042276CE070E00C947F
:10328000E3914091B70421E0422764E070E00C94A0
:10329000E3914091B70421E0422761E070E00C9493
:1032A000E3914091B70421E0422761E070E00C9483
:1032B000E3914091B70421E0422768E070E00C946C
:1032C000E3914091B70421E042276CE070E00C9458
:1032D000E39141E061E070E00C94E3914091B70428
:1032E00021E042270C94E391BC0190E080E00C9433
:1032F000F68F6CE070E00C94749664E070E00C94CF
:10330000749661E070E00C94749661E070E00C9447
:1033100074966CE070E00C947496682F880F770BAD
:10332000880B990B0C946090CF93DF93EC01C43021
:1033300081E0D8076CF184E091E090934805809398
:103340004705C4E0D1E06091430570914405809148
:103350004505909146050E94FEB76E5F7F4F259709
:103360006C177D07DCF470932705609326050E9497
:10337000339760547B428E4F9F4F60932805709324
:10338000290580932A0590932B05DF91CF9108950D
:10339000D0934805C09347052097A9F610922805B9
:1033A0001092290510922A0510922B05EECF0F934B
:1033B0001F9380913B04813019F50E94339700914F
:1033C0003304109134042091350430913604601B8D
:1033D000710B820B930B28EE33E040E050E00E942B
:1033E000EBB560912F04709130048091310490917D
:1033F0003204620F731F841F951F1F910F91089550
:1034000060913704709138048091390490913A04A6
:10341000D6CF0F931F93CF93DF9303EB1CE0CCE148
:10342000D7E0F80121913191419151918F0160E0F4
:1034300070E080E89FE30E9496B76993799389933F
:103440009993F7E0CC32DF0761F70E94BF91DF91DB
:10345000CF911F910F91F8C94F925F926F927F9217
:103460008F929F92AF92BF92CF92DF92EF92FF9294
:103470000F931F93CF93DF93EC012091A70430911A
:10348000A8044091A9045091AA04688179818A8195
:103490009B810E94B9B66B017C012091AB043091F5
:1034A000AC044091AD045091AE046C817D818E815D
:1034B0009F810E94B9B64B015C01A7019601609102
:1034C00003027091040280910502909106020E940D
:1034D00011B2882309F451C0C0920302D0920402B1
:1034E000E0920502F09206022091F1033091F2037E
:1034F0004091F3035091F403C701B6010E9476B2E4
:103500002B013C010E942FB86B017C0120E030E0D0
:10351000A9010E9411B287FD71C020E030E040E8AF
:103520005FE3C701B6010E94E0B8181634F4C12C5D
:10353000D12CC0E8EC2ECFE3FC2EA7019601C301ED
:10354000B2010E94B9B66093E9037093EA038093D5
:10355000EB039093EC03C701B6010E94FEB76093A2
:10356000E703062E000C770B6F5F7F4F623071050B
:1035700014F062E070E06093E50310910102D091D5
:10358000E703A50194016091070270910802809100
:10359000090290910A020E9411B2811133C01D13D9
:1035A00082C02091CD033091CE034091CF03509142
:1035B000D0036091E9037091EA038091EB0390914D
:1035C000EC030E9476B22091D1033091D203409156
:1035D000D3035091D4030E94BAB6DF91CF911F91CB
:1035E0000F91FF90EF90DF90CF90BF90AF909F90A2
:1035F0008F907F906F905F904F900895C12CD12C49
:1036000076019BCF8092070290920802A092090255
:10361000B0920A022091F5033091F6034091F7032E
:103620005091F803C501B4010E9476B24B015C01D0
:103630000E942FB86B017C0120E030E0A9010E94BC
:1036400011B287FDFDC020E030E040E85FE3C70134
:10365000B6010E94E0B8181634F4C12CD12CB0E8A1
:10366000EB2EBFE3FB2EA7019601C501B4010E941A
:10367000B9B66093ED037093EE038093EF039093DC
:10368000F003C701B6010E94FEB76093E803062E5F
:10369000000C770B6F5F7F4F6230710514F062E0B2
:1036A00070E06093E603C091E8031D1305C08091AC
:1036B00002028C1709F479C08091E7039091E80326
:1036C00090930202809301028D2FDD0F990B0C2E37
:1036D000000CDD0BAC01440F551F840F951FFC013E
:1036E000EC0FFD1FEE0FFF1FEE0FFF1FED57FB4FFF
:1036F00020813181428153812093E1033093E203A1
:103700004093E3035093E403E091E6030E2FEE0FA2
:10371000110BDC01A00FB11FAA0FBB1FAA0FBB1F0B
:10372000AD57BB4F6D917D918D919C910E94B9B623
:103730006093DD037093DE038093DF039093E003D7
:103740008091E503282F880F330BC901880F991F3B
:10375000820F931FC80FD91FCC0FDD1FCC0FDD1FA9
:10376000CD57DB4F288139814A815B812093D90372
:103770003093DA034093DB035093DC03FC01E00F4A
:10378000F11FEE0FFF1FEE0FFF1FED57FB4F608184
:103790007181828193810E94B9B66093D503709341
:1037A000D6038093D7039093D8038090ED03909035
:1037B000EE03A090EF03B090F0032091DD03309171
:1037C000DE034091DF035091E003C501B4010E9484
:1037D00076B22091E1033091E2034091E3035091EE
:1037E000E4030E94BAB66B017C01C092D103D0926F
:1037F000D203E092D303F092D4032091D503309109
:10380000D6034091D7035091D803C501B4010E945B
:1038100076B22091D9033091DA034091DB035091C5
:10382000DC030E94BAB6A70196010E94B9B6609364
:10383000CD037093CE038093CF039093D003B1CE8A
:10384000C12CD12C76010FCFCF93DF9320917D0433
:10385000222371F0EC0100DE9B01AC0168857985C3
:103860008A859B850E94B9B6688779878A879B87F6
:10387000DF91CF91089520E030E0A901BC018FE5F0
:1038800092E00C9487918091020490910304009738
:1038900031F04AE050E070E060E00C9451AF60E03D
:1038A00070E0CB010895EFDF97FD0AC0ECDF6F3FBA
:1038B00071058105910509F02CF4E5DF862F089547
:1038C00080E008958FEF0895CF93C62F40DA8823C4
:1038D00011F0CF91E8CF8C2FCF9108958091020401
:1038E00090910304892B39F0DEDF91E0811101C052
:1038F00090E0892F089591E0FCCFCF93DF93C82FFC
:10390000D62F25DA882319F0DF91CF91E7CF8C2FBE
:10391000D0D9811101C08D2FDF91CF910895B3DFF0
:10392000CB010895CF93DF93EB0111DA882319F0CF
:10393000DF91CF91F4CFCE01DF91CF9108950F9316
:103940001F93CF9380910204909103040097E9F0B4
:10395000FC018F01C1912C2F2F7D81F0C53411F016
:10396000C536B9F7F801108270E060E00E94FCAD46
:10397000F801C083CF911F910F91089570E060E02E
:10398000CF911F910F910C94FCAD60E070E0CB01E2
:10399000F1CFCF92DF92EF92FF926A017B01D7D9EC
:1039A000882329F0FF90EF90DF90CF90C8CFC70118
:1039B000B601FF90EF90DF90CF9008958F929F9285
:1039C000AF92BF92CF92DF92EF92FF920F931F932D
:1039D000CF938CE5E82E84E0F82E0FE512E097EE09
:1039E000C92E9CE0D92EC0E088E58C0FB0D9882381
:1039F00009F474C0A4DF4B015C018C2F33D98823F8
:103A000009F462C0F8012081318142815381C501EE
:103A1000B4010E94BAB6F7016083718382839383F5
:103A2000CF5FF4E0EF0EF11C0C5F1F4F84E0C80E77
:103A3000D11CC330C9F685E48AD9882309F459C05A
:103A40007EDF6B017C0183E00DD9882371F020912A
:103A50006B0230916C0240916D0250916E02C70171
:103A6000B6010E94BAB66B017C01C0926804D09284
:103A70006904E0926A04F0926B0440E050E0BA01FD
:103A800086E487DF20E030E0A9010E94E0B8181644
:103A90007CF455DF20E030E040E752E40E9496B726
:103AA000609324027093250280932602909327024C
:103AB000CF911F910F91FF90EF90DF90CF90BF902B
:103AC000AF909F908F900895F601208131814281BF
:103AD0005381C501B4010E94B9B69DCFF801808120
:103AE0009181A281B381F70180839183A283B38303
:103AF00097CF80916B0290916C02A0916D02B09172
:103B00006E028093680490936904A0936A04B09352
:103B10006B04B3CF0F930FB70F9300916E000F9309
:103B20000D7F00936E0000916F000D7F00936F007A
:103B30000F930BB70F930CB70F921F922F933F93D6
:103B40004F935F936F937F938F939F93AF93BF93A5
:103B5000EF93FF931124F0D5FF91EF91BF91AF91B7
:103B60009F918F917F916F915F914F913F912F9195
:103B70001F900F900CBF0F910BBF0F910260F89434
:103B800000936F000F9100936E000F910FBF0F9184
:103B9000189500008091590580FF23C089988FEF08
:103BA0008093BA048091590581FF1EC08F988FEFD2
:103BB0008093BB048091590582FF19C080910B014D
:103BC00080958270809309018FEF8093BC0480916F
:103BD000590583FF13C0169A8FEF8093BD04000030
:103BE0000895899A81E0DCCF8F9A81E0E1CF8091BE
:103BF0000B0182708093090181E0E7CF169881E084
:103C0000ECCF8091B904877F8093B904129A81E048
:103C1000089580E00E94FD1281E00E94FD1282E082
:103C20000E94FD12EECF12988091B90488608093B3
:103C3000B9040895813079F0823079F05F9821E0FD
:103C400030E001C0220F8A95EAF78091B904822BF7
:103C50008093B90408958A98F2CF909108019170E9
:103C600090930601ECCFCF93DF9380917004811184
:103C700019C0C0912A02D0912B02219720E030E098
:103C800040E05FE3609143057091440580914505F4
:103C9000909146050E94BAB60E94FEB721E06C17CB
:103CA0007D070CF020E0822FDF91CF910895CF9314
:103CB000DF9320917D04222371F0EC01CDDB9B0189
:103CC000AC01688579858A859B850E94BAB668872C
:103CD00079878A879B87DF91CF9108952F923F92B2
:103CE0004F925F926F927F928F929F92AF92BF920C
:103CF000CF92DF92EF92FF920F931F93CF93DF93B8
:103D0000CDB7DEB76C970FB6F894DEBF0FBECDBF50
:103D10008C015B015A834983FC01EA5BFF4F2081E0
:103D200031814281538129873A874B875C87CA0159
:103D3000B9010E9415B26B017C01D5012D913D9115
:103D40004D915C910E9476B20E9480B72B013C019C
:103D5000E981FA812081318142815381C701B60115
:103D60000E9476B20E9480B74B015C01C301B20190
:103D70000E9403B8698B7A8B8B8B9C8B683771059B
:103D80008105910540F428E730E040E050E0298BC0
:103D90003A8B4B8B5C8BC501B4010E9403B86D87D5
:103DA0007E878F87988B683771058105910540F470
:103DB00048E750E060E070E04D875E876F87788B62
:103DC000F801EE5AFF4F4080518062807380C3013A
:103DD000B2010E9417B269837A838B839C836989BD
:103DE0007A898B899C890E9415B26D8B7E8B8F8B13
:103DF000988F20E030E0A90169817A818B819C81D4
:103E00000E9411B2882309F4E1C1A7019601C701FC
:103E1000B6010E9476B24B015C012D893E894F8923
:103E2000588DCA01B9010E9476B29B01AC01C5014F
:103E3000B4010E94B9B64B015C0129813A814B81E2
:103E40005C81CA01B9010E94BAB69B01AC01C501EF
:103E5000B4010E9496B70E9480B70E9403B86D8398
:103E60007E838F83988766277727CB01641975092E
:103E7000860997090E9417B24B015C016D857E850A
:103E80008F8598890E9415B22B013C0120E030E01B
:103E9000A901C501B4010E9411B2882309F49AC195
:103EA000A3019201C301B2010E9476B2698F7A8F99
:103EB0008B8F9C8FA7019601C701B6010E9476B235
:103EC0009B01AC01698D7A8D8B8D9C8D0E94B9B65A
:103ED0006B017C01A5019401C501B4010E94BAB631
:103EE0009B01AC01C701B6010E9496B70E942FB892
:103EF000D80195968D909D90AD90BC909897750146
:103F000064012D813E814F815885C21AD30AE40A8B
:103F1000F50A0E9403B8C61AD70AE80AF90AF7FE9A
:103F20008EC02D893E894F89588DCA01B9010E94E2
:103F300076B26B017C0129813A814B815C81CA0197
:103F4000B9010E94BAB669877A878B879C8720E07F
:103F500030E0A90169817A818B819C810E9411B234
:103F6000882309F43BC1C501B4010E9415B229851B
:103F70003A854B855C850E9476B2A70196010E9426
:103F8000B9B66D837E838F839887A3019201C301A5
:103F9000B2010E9476B29B01AC016D817E818F815E
:103FA00098850E94BAB62B013C0120E030E040E841
:103FB00050E469817A818B819C810E9476B29B0159
:103FC000AC01C301B2010E9496B70E9480B72B01D9
:103FD0003C0120E030E0A9010E94E0B818161CF076
:103FE000412C512C3201C301B2010E9403B86D83F0
:103FF0007E838F83988786169706A806B90620F4D5
:104000008D829E82AF82B8866D817E818F819885F8
:104010000E9415B229853A854B855C850E9476B24F
:10402000A70196010E94BAB60E9425B90E9403B862
:1040300069877A878B879C87C12CD12C760169850B
:104040007A858B859C8529893A894B895C89621B95
:10405000730B840B950B0E9415B229813A814B8119
:104060005C810E9496B720E034E244EF59E40E945C
:1040700076B20E9403B84B015C0169857A858B8515
:104080009C852D853E854F855889621B730B840B5B
:10409000950B0E9415B229813A814B815C810E9467
:1040A00096B720E034E244EF59E40E9476B20E94D1
:1040B00003B82B013C013FE683169104A104B1042F
:1040C00008F090C0F401EE0FFF1FEE0FFF1FE35941
:1040D000FD4E85919591A591B4918983292E3A2E13
:1040E000BD8B4FE6441651046104710408F083C08F
:1040F000F201EE0FFF1FEE0FFF1FE359FD4E45913A
:104100005591659174919A01CB014D815E816F81CA
:104110007885D80199964D935D936D937C939C9788
:104120004C0D5D1D6E1D7F1DF80145A756A767A7A5
:1041300070ABE65BFF4F49895A896B897C89408364
:10414000518362837383D5968D929D92AD92BC927A
:10415000D897F80141AE52AE63AE74AEFD96498178
:104160004083218232825D89538334962083318358
:104170008283938369857A858B859C85D1966D939F
:104180007D938D939C93D4973D962D853E854F8549
:10419000588920833183428353836C960FB6F894F9
:1041A000DEBF0FBECDBFDF91CF911F910F91FF906A
:1041B000EF90DF90CF90BF90AF909F908F907F90C7
:1041C0006F905F904F903F902F90089560E070E067
:1041D000CB0141CE60E070E0CB0188CE60E070E0C2
:1041E000CB01F3CEC501B4010E9427136983272EAA
:1041F000382E9D8B76CFC301B2010E9427139B01FD
:1042000084CF90916F0081E091FD02C080E008951D
:1042100090916F009D7F90936F000895EFE6F0E01E
:1042200080818260808308958F929F92AF92BF9227
:10423000CF92DF92EF92FF920F931F93CF93DF9372
:10424000182F84E0189FE0011124123008F046C0B6
:10425000D8DF082FD6DF8090100590901105A09030
:104260001205B09013058111D9DFCBDFC090140582
:10427000D0901505E0901605F09017058111CEDF5E
:104280000111CCDF113019F5C501B4016C197D099C
:104290008E099F090E9417B220E030E040E05FE302
:1042A0000E9476B2C45ED84F288139814A815B81F1
:1042B0000E9476B2DF91CF911F910F91FF90EF9006
:1042C000DF90CF90BF90AF909F908F900895C701DF
:1042D000B601680D791D8A1D9B1DDCCF92DFFE01A2
:1042E000E05FFA4FC080D180E280F380811196DFD9
:1042F000C701B6010E9417B2D5CFCF92DF92EF92DD
:10430000FF92CF93DF93C82F7CDF94E0C99FE00139
:104310001124FE01EC5FFA4FC080D180E280F3806F
:1043200081117CDFC45ED84FC701B6010E9417B26D
:10433000288139814A815B810E9476B2DF91CF91D9
:10434000FF90EF90DF90CF900895CF93DF93CDB79C
:10435000DEB72C970FB6F894DEBF0FBECDBF0E941C
:10436000D1904FDF9CE0E0E1F5E0DE011196019095
:104370000D929A95E1F7811151DFCE0101960E94CD
:1043800016A52C960FB6F894DEBF0FBECDBFDF91F9
:10439000CF9108952F923F924F925F926F927F92AA
:1043A0008F929F92AF92BF92CF92DF92EF92FF9245
:1043B0000F931F93CF93DF9300D0CDB7DEB78090DC
:1043C0005F0290906002A0906102B0906202409003
:1043D0006302509064026090650270906602C09023
:1043E0006702D0906802E0906902F0906A020E9431
:1043F00024140E94721405E315E18EE292E09B837F
:104400008A8389E2282E85E1382E198289810E94CB
:104410002F15F80185919591A591B491EA81FB81C1
:1044200081939193A193B193FB83EA83F1018591E9
:104430009591A591B491EA81FB8180879187A287AC
:10444000B387F981FF5FF9830C5F1F4F84E0280E6B
:10445000311CF330D9F60E9441170E94091AA501B8
:10446000940160915F02709160028091610290916D
:1044700062020E9411B281111CC0A30192016091DD
:1044800063027091640280916502909166020E94BD
:1044900011B281110EC020916702309168024091E3
:1044A000690250916A02C701B6010E9411B28823C5
:1044B000B1F00F900F900F90DF91CF911F910F915E
:1044C000FF90EF90DF90CF90BF90AF909F908F9034
:1044D0007F906F905F904F903F902F9036CF0F90CE
:1044E0000F900F90DF91CF911F910F91FF90EF9060
:1044F000DF90CF90BF90AF909F908F907F906F9004
:104500005F904F903F902F900895CF93DF931F922D
:10451000CDB7DEB7898360E0CE0101960E940E150B
:1045200061E0CE0101960E940E1562E0CE01019677
:104530000E940E1589810F90DF91CF9108958F927F
:104540009F92AF92BF92CF92DF92EF92FF921F9312
:10455000CF93DF93CDB7DEB760970FB6F894DEBF89
:104560000FBECDBF182F80E05FDE4B015C01809253
:104570003D0490923E04A0923F04B092400481E03A
:1045800053DE6B017C01C0924104D0924204E09260
:104590004304F092440482E047DE60934504709344
:1045A000460480934704909348041D861E861F8608
:1045B000188A89829A82AB82BC82CD82DE82EF82A7
:1045C000F88669877A878B879C8783E02DDE6D87E5
:1045D0007E878F87988BCE01019636D91E3FD9F4FE
:1045E00080E1FE013196AFE5B2E001900D928A952F
:1045F000E1F760960FB6F894DEBF0FBECDBFDF9136
:10460000CF911F91FF90EF90DF90CF90BF90AF9030
:104610009F908F90089584E0189FF0011124DF018E
:10462000A15ABD4F81E090E08C0F9D1FE80FF91F4C
:1046300040815181628173814D935D936D937C9331
:104640001397D7CF0C94BF9180915805811105C065
:104650008091E506882309F46EC080913C04659B37
:104660005AC0816080933C049091030180913C0486
:1046700090FF53C0826080933C0480913C04639B14
:104680004EC0886080933C0480913C044A9B49C0A2
:10469000846080933C048091F40480FF10C080917A
:1046A000590584FF0CC080913C0480FF08C08091B4
:1046B000E30681608093E30680E00E944AA5809132
:1046C000F40481FF10C08091590585FD0CC08091D4
:1046D0003C0481FF08C08091E30682608093E3067A
:1046E00081E00E944AA58091F40482FF24C0809159
:1046F000590582FF18C08091E5068823E1F080917A
:104700003C0483FF18C08091E30688608093E30631
:1047100082E00C944AA58E7FA5CF8D7FACCF877F9A
:10472000B1CF8B7FB6CF80913C0482FF04C08091D3
:10473000E3068460EBCF08952F923F924F925F92F1
:104740006F927F928F929F92AF92BF92CF92DF92A1
:10475000EF92FF920F931F93CF93DF93CDB7DEB706
:1047600062970FB6F894DEBF0FBECDBF8FEF9FEFFD
:1047700090938900809388002AE0298B312C212C8A
:1047800078948091FD049091FE04A091FF04B09173
:104790000005892B8A2B8B2B09F0CDC18091030555
:1047A0008823D1F0809101059091020510920305B4
:1047B000892B91F010920205109201051092F404D9
:1047C0009091D10E8091D20E981731F08091D20E37
:1047D0008F5F8F708093D20E8091010590910205BA
:1047E000892B09F4A8C14091F9045091FA04609111
:1047F000FB047091FC048091F5049091F604A09163
:10480000F704B091F8040091EB0410E030E020E0F0
:10481000841B950BA60BB70B081719072A073B0734
:1048200010F4D901C8018A8B840F951FA61FB71FEA
:104830008093F9049093FA04A093FB04B093FC04D2
:10484000E1E0C090C204D090C304E090C404F090B2
:10485000C5048091D2049091D304A091D404B09166
:10486000D504C80ED91EEA1EFB1EC092D204D092F7
:10487000D304E092D404F092D504F7FC33C0409105
:10488000BA04042E000C550B660B770B80911005B3
:1048900090911105A0911205B0911305840F951FF9
:1048A000A61FB71F8093100590931105A0931205C2
:1048B000B09313058091BE049091BF04A091C004F1
:1048C000B091C104B701A601481B590B6A0B7B0BC1
:1048D000DB01CA018093D2049093D304A093D40443
:1048E000B093D5040091C6041091C7042091C80468
:1048F0003091C9048091D6049091D704A091D80436
:10490000B091D904080F191F2A1F3B1F0093D6042A
:104910001093D7042093D8043093D90437FD33C0C3
:104920004091BB04042E000C550B660B770B809155
:10493000140590911505A0911605B0911705840FE7
:10494000951FA61FB71F8093140590931505A0937C
:104950001605B09317058091BE049091BF04A091F5
:10496000C004B091C10428013901481A590A6A0AE1
:104970007B0AD301C2018093D6049093D704A093FD
:10498000D804B093D9044091CA045091CB046091EB
:10499000CC047091CD048091DA049091DB04A09155
:1049A000DC04B091DD04480F591F6A1F7B1F409340
:1049B000DA045093DB046093DC047093DD0477FD2C
:1049C00033C08090BC04082C000C9908AA08BB08CE
:1049D0008091180590911905A0911A05B0911B05B9
:1049E000880D991DAA1DBB1D80931805909319056C
:1049F000A0931A05B0931B058091BE049091BF044B
:104A0000A091C004B091C1043A014B01681A790A1F
:104A10008A0A9B0AD401C3018093DA049093DB04D1
:104A2000A093DC04B093DD048090CE049090CF047A
:104A3000A090D004B090D1048091DE049091DF0466
:104A4000A091E004B091E104880D991DAA1DBB1D41
:104A50008093DE049093DF04A093E004B093E1041C
:104A6000B7FD33C04090BD04042C000C5508660807
:104A7000770880901C0590901D05A0901E05B090B1
:104A80001F05840C951CA61CB71C80921C059092D7
:104A90001D05A0921E05B0921F058090BE04909047
:104AA000BF04A090C004B090C1042C013D0148187F
:104AB00059086A087B08530142018092DE049092F3
:104AC000DF04A092E004B092E104E11104C0E0919F
:104AD0008400F0918500F7FE889A37FF8E9A77FD63
:104AE00006C0E0910B01E095E870E0930901B7FF83
:104AF000149AE0918400F0918500E0918400F09197
:104B00008500F7FE889837FF8E9877FD05C02091C5
:104B10000B01287020930901B7FF14985A8855207B
:104B200021F080918400909185002A8921502A8B60
:104B3000E0E0211186CE8091FD049091FE04A091C9
:104B4000FF04B0910005892B8A2B8B2B09F0A5C699
:104B5000E0910105F0910205309709F412C78091A8
:104B6000F9049091FA04A091FB04B091FC044091E7
:104B7000F5045091F6046091F7047091F8048417DD
:104B80009507A607B70708F447C0109202051092D0
:104B900001051092F4049091D10E8091D20E9817D5
:104BA00009F4EFC68091D20E8F5F8F708093D20E82
:104BB00000EDC02E07E0D02EE12CF12C80910105F4
:104BC00090910205892B09F060C60E94D914909338
:104BD000020580930105892B09F457C6E091010570
:104BE000F0910205808183FFFCC4CF0145960E94AD
:104BF00091A510920205109201051092F404909173
:104C0000D10E8091D20E981701F38091D20E8F5F52
:104C10008F708093D20ED9CF4091F0045091F1045F
:104C20006091F2047091F304481759076A077B07F3
:104C300008F40AC24091EC045091ED046091EE0436
:104C40007091EF0485A996A9A7A9B0AD4817590797
:104C50006A077B0708F0D2C141155105610571054E
:104C600009F068C08090B1039090B203A090B303A4
:104C7000B090B4038CE49FE1A1E0FC010591159193
:104C800025913491081519052A053B0568F4B69459
:104C9000A79497948794AA0F049618E6612E1FE1B3
:104CA000712E6816790649F7A093EB0420E282166C
:104CB0009104A104B10428F4A0E28A2E912CA12C25
:104CC000B12C30E2831A9108A108B108811488E060
:104CD0009806A104B10408F496C1A4E09A9EC0010C
:104CE0001124845B944EFC01329625913491B82DA9
:104CF000EE27B39F8001B29F010D1E1F06940E1F69
:104D00001E1F112430E020E0FC01C590D490F12C4E
:104D1000E12CC01AD10AE20AF30A4C0D5D1D6E1D8A
:104D20007F1D4093EC045093ED046093EE04709368
:104D3000EF0444CF00E01981942F852E862FBB818C
:104D4000AC81FD81EE813F8128854A80E091AD03F1
:104D5000E99FA12DFF273091AE03399FA00DF11DD2
:104D60001090AF03199EF00DE89DA00DF11D389D28
:104D7000F00DE89FF00D4A2EBF2F4A9EE12D3327FC
:104D800022274F9EE00D311D201FBA9FE00D311DDF
:104D9000201FBF9F300D211D432EB22F4A9E112D83
:104DA000332722274F9E100D311D201FBA9F100D53
:104DB000311D201FBF9F300D211D432EB22FEE2726
:104DC0009091B1038090B2038091B3030090AC0343
:104DD000002A09F483C03091A803349DE119900B97
:104DE000800A800B2091A903249DE0199109800A73
:104DF000800B1091AA03149D90198108800B3B9F92
:104E0000E0199109800A800B2B9F90198108800B73
:104E10001B9F801881094A9E112D332722274F9E00
:104E2000100D311D201FBA9F100D311D201FBF9F77
:104E3000300D211D432EB22F3091A403349DE10D7E
:104E4000901F801E801F2091A503249DE00D911DC1
:104E5000801E801F1091A603149D900D811C801F41
:104E60003B9FE00D911D801E801F2B9F900D811C8C
:104E7000801F1B9F800C811D4A9E112D33272227E6
:104E80004F9E100D311D201FBA9F100D311D201F88
:104E9000BF9F300D211D432EB22F3091A003349DB2
:104EA000E119900B800A800B2091A103249DE01949
:104EB0009109800A800B1091A203149D901981081A
:104EC000800B3B9FE0199109800A800B2B9F901962
:104ED0008108800B1B9F8018810982C03091A80334
:104EE000349DE10D901F801E801F2091A903249DF9
:104EF000E00D911D801E801F1091AA03149D900D3E
:104F0000811C801F3B9FE00D911D801E801F2B9FE9
:104F1000900D811C801F1B9F800C811D4A9E112DAE
:104F2000332722274F9E100D311D201FBA9F100DD1
:104F3000311D201FBF9F300D211D432EB22F3091F8
:104F4000A403349DE119900B800A800B2091A503E6
:104F5000249DE0199109800A800B1091A603149DED
:104F600090198108800B3B9FE0199109800A800B02
:104F70002B9F90198108800B1B9F801881094A9EE6
:104F8000112D332722274F9E100D311D201FBA9F50
:104F9000100D311D201FBF9F300D211D432EB22F3C
:104FA0003091A003349DE10D901F801E801F209141
:104FB000A103249DE00D911D801E801F1091A2036E
:104FC000149D900D811C801F3B9FE00D911D801E44
:104FD000801F2B9F900D811C801F1B9F800C811DAB
:104FE00011244A821983BB83AC83FD83EE833F8304
:104FF0002887982C892EB12CA82E3CCE81A892A867
:10500000A3A8B4A837CED501C401B695A7959795A6
:1050100087958C7F845B984EFC01C590D490FC01F1
:10502000329625913491F82DF770F29FC001F39FCD
:10503000900D1124F3E096958795FA95E1F7C81A3B
:10504000D90AF12CE12C69CE4091E7045091E80493
:105050006091E9047091EA04481759076A077B07D1
:1050600008F02BC28090E2049090E304A090E40446
:10507000B090E5048091E60481117CC0DF01AF5B54
:10508000BF4FED90FD900D911C9113971D962D91A2
:105090003D914D915C9161A972A983A994A90E9447
:1050A000AB12442443944092E604E0910105F09150
:1050B000020541A952A963A974A98CE49FE1A1E06A
:1050C000FC010591159125913491041715072607C8
:1050D000370768F47695679557954795AA0F049614
:1050E00038E6632E3FE1732E6816790649F7A093E0
:1050F000EB04403251056105710520F440E250E0B7
:1051000060E070E04052510961097109411528E0E1
:1051100052076105710508F4B0C134E0539FC00126
:105120001124845B944EFC01329625913491AA2778
:10513000439FF001429FE10DFA1F0694EA1FFA1FF8
:105140001124AF0170E060E0FC01C590D490F12C17
:10515000E12CC41AD50AE60AF70A8C0C9D1CAE1C79
:10516000BF1C8092E2049092E304A092E404B09207
:10517000E50424CD81AD92ADA3ADB4AD88169906FA
:10518000AA06BB0608F072C181149104A104B104FF
:1051900049F44091B1035091B2036091B30370910F
:1051A000B4038BCFA0E0F985982D492D8A2DEA858F
:1051B0007B856C85BD855E853F8528895091AD03D3
:1051C000599F612DBB273091AE03399F600DB11DF2
:1051D0001090AF03199EB00D549F600DB11D349F08
:1051E000B00D589FB00DE62F7B2FE69F512D332732
:1051F0002227EB9F500D311D2A1F769F500D311D28
:105200002A1F7B9F300D211DE32F722FE69FF12D6A
:1052100033272227EB9FF00D311D2A1F769FF00DBB
:10522000311D2A1F7B9F300D211DE32F722F552723
:105230009091B1034091B2038091B3030090AC030D
:105240000A2A09F483C03091A8033E9F51199A0B92
:105250004A0B8A0B2091A9032E9F501991094A0BE2
:105260008A0BF091AA03FE9F901941098A0B379F80
:10527000501991094A0B8A0B279F901941098A0BF3
:10528000F79F40198109E69FF12D33272227EB9FD5
:10529000F00D311D2A1F769FF00D311D2A1F7B9FB7
:1052A000300D211DE32F722F3091A4033E9F510D2D
:1052B0009A1F4A1F8A1F2091A5032E9F500D911DF2
:1052C0004A1F8A1FF091A603FE9F900D411D8A1F61
:1052D000379F500D911D4A1F8A1F279F900D411D1A
:1052E0008A1FF79F400D811DE69FF12D332722274E
:1052F000EB9FF00D311D2A1F769FF00D311D2A1FE7
:105300007B9F300D211DE32F722F3091A0033E9F14
:1053100051199A0B4A0B8A0B2091A1032E9F501909
:1053200091094A0B8A0BF091A203FE9F9019410943
:105330008A0B379F501991094A0B8A0B279F9019A6
:1053400041098A0BF79F4019810982C03091A80357
:105350003E9F510D9A1F4A1F8A1F2091A9032E9F1D
:10536000500D911D4A1F8A1FF091AA03FE9F900DB8
:10537000411D8A1F379F500D911D4A1F8A1F279F6D
:10538000900D411D8A1FF79F400D811DE69FF12D55
:1053900033272227EB9FF00D311D2A1F769FF00D3A
:1053A000311D2A1F7B9F300D211DE32F722F30915D
:1053B000A4033E9F51199A0B4A0B8A0B2091A50317
:1053C0002E9F501991094A0B8A0BF091A603FE9F5C
:1053D000901941098A0B379F501991094A0B8A0B82
:1053E000279F901941098A0BF79F40198109E69F71
:1053F000F12D33272227EB9FF00D311D2A1F769FB9
:10540000F00D311D2A1F7B9F300D211DE32F722FC0
:105410003091A0033E9F510D9A1F4A1F8A1F209171
:10542000A1032E9F500D911D4A1F8A1FF091A203C8
:10543000FE9F900D411D8A1F379F500D911D4A1FE1
:105440008A1F279F900D411D8A1FF79F400D811DC8
:105450001124F987EA877B876C87BD875E873F8742
:10546000288B542F492F70E0682F27CEE25BFF4F27
:10547000408151816281738120CEDB01CA01B695E2
:10548000A795979587958C7F845B984EFC01C59076
:10549000D490FC013296259134914770429FC0010F
:1054A000439F900D112403E0969587950A95E1F7A7
:1054B000C81AD90AF12CE12C50CE80914602909165
:1054C0004702A0914802B0914902B7FF5FC0EA5B72
:1054D000FF4FC080D180E280F3808CE49FE121E027
:1054E000FC0145915591659174914C155D056E05D2
:1054F0007F0558F4F694E794D794C794220F049646
:1055000048E65FE14817590759F72093EB0450E24A
:10551000C516D104E104F10428F4F0E2CF2ED12C19
:10552000E12CF12C60E2C61AD108E108F108C1149F
:1055300078E0D706E104F10408F431C0A4E0DA9E73
:10554000C0011124845B944EFC0132962591349164
:10555000BC2D6627B39FA001B29F410D561F069434
:10556000461F561F112470E060E0FC018591949164
:10557000B0E0A0E0841B950BA60BB70B809346020E
:1055800090934702A0934802B0934902C09046020C
:10559000D0904702E0904802F09049020FCBD7012B
:1055A000C601B695A795979587958C7F845B984E95
:1055B000FC0125913491FC01329645915491FC2DCA
:1055C000F770F49FC001F59F900D1124E3E09695CC
:1055D0008795EA95E1F7281B390BC901B0E0A0E0F7
:1055E000CDCF458956896789708DC18CD28CE38C6B
:1055F000F48CDF01AB5BBF4F4C904A8A81E04C15C5
:105600005D056E057F0509F098C180E041155105E3
:105610006105710551F0242D2170942D969591709E
:1056200081E0291380E0291388C1058D168D278D0F
:1056300030A1011511052105310509F08460809321
:10564000F4041092E2041092E3041092E404109225
:10565000E5041092EC041092ED041092EE04109206
:10566000EF0485A196A1A7A1B0A58093F50490931E
:10567000F604A093F704B093F80488249924540105
:10568000881A990AAA0ABB0A8092D2049092D3047B
:10569000A092D404B092D5048092D6049092D704FC
:1056A000A092D804B092D9048092DA049092DB04DC
:1056B000A092DC04B092DD0481A092A0A3A0B4A0CB
:1056C000880C991CAA1CBB1C440F551F661F771F12
:1056D0004093C2045093C3046093C4047093C50400
:1056E000CC0CDD1CEE1CFF1CC092C604D092C7047B
:1056F000E092C804F092C904000F111F221F331F4B
:105700000093CA041093CB042093CC043093CD04AF
:105710008092CE049092CF04A092D004B092D10493
:10572000880F991FAA1FBB1F8093BE049093BF04CC
:10573000A093C004B093C1041092F9041092FA042B
:105740001092FB041092FC0481A592A5A3A5B4A518
:105750008093F0049093F104A093F204B093F304C7
:1057600085A596A5A7A5B0A98093E7049093E80422
:10577000A093E904B093EA04809159055A888515ED
:1057800021F0509259050E94C91D0E9424236624CD
:105790006A94762C4301609246027092470280928E
:1057A000480290924902E0910105F0910205DF0163
:1057B000DD96ED90FD900D911C9121A932A943A990
:1057C00054A9E65BFF4F60817181828193810E94C1
:1057D000AB121092E604E0910105F0910205E65B40
:1057E000FF4F40815181628173818CE49FE1A1E090
:1057F000FC01059115912591349104171507260791
:10580000370768F47695679557954795AA0F0496DC
:10581000F8E68F2EFFE19F2E8816990649F7A09390
:10582000EB04403251056105710520F440E250E07F
:1058300060E070E04052510961097109411528E0AA
:1058400052076105710508F47AC034E0539FC00126
:105850001124845B944EFC01329625913491AA2741
:10586000439FF001429FE10DFA1F0694EA1FFA1FC1
:105870001124AF0170E060E0FC01C590D490F12CE0
:10588000E12CC41AD50AE60AF70AC092FD04D092A8
:10589000FE04E092FF04F09200058091FD049091D7
:1058A000FE04A091FF04B0910005AC01BD0100977A
:1058B000F1E0AF07B10520F04FEF5FEF60E070E07F
:1058C000841B950BA60BB70B8093FD049093FE04ED
:1058D000A093FF04B0930005F89480918400909108
:1058E0008500409629892150298B222309F447C03D
:1058F000240E351E2816390610F40C94C02330925D
:10590000890020928800789462960FB6F894DEBFE2
:105910000FBECDBFDF91CF911F910F91FF90EF9000
:10592000DF90CF90BF90AF909F908F907F906F90BF
:105930005F904F903F902F900895826076CEDB016C
:10594000CA01B695A795979587958C7F845B984EED
:10595000FC01C590D490FC0132962591349147709A
:10596000429FC001439F900D112433E09695879587
:105970003A95E1F7C81AD90AF12CE12C86CF1C011F
:10598000BECF80EDC82E87E0D82EE12CF12C1DC9AA
:1059900010923B0410923304109234041092350498
:1059A0001092360410923704109238041092390481
:1059B00010923A0410922F04109230041092310485
:1059C00010923204089580913B048130E9F08230D6
:1059D000C9F40E94D71960932F0470933004809308
:1059E00031049093320481E080933B040E9433970A
:1059F0006093330470933404809335049093360499
:105A000081E00895C5DFEFCF80E0089580913B04E9
:105A10008150823070F410923B040E94339760935F
:105A20003704709338048093390490933A0481E0EA
:105A3000089580E00895282F30E094E0359527956B
:105A40009A95E1F797E32A3008F490E3920F909348
:105A50001F028F7097E38A3008F490E3890F8093D8
:105A600020028FE192E008950C9460908F929F92B3
:105A7000AF92BF92CF92DF92EF92FF920F931F935C
:105A8000CF93DF9310922704109226042FE32093E4
:105A90002A041092290410922804109222041092D1
:105AA000230410922404109225049C01F901908192
:105AB0002F5F3F4F9032D1F39E34C9F4818190ED36
:105AC000980F9A3020F08D3211F08B3281F432969B
:105AD0009F012F5F3F4F808180538A3008F46BC055
